:0A0A6800470B0E100C0905120E00DA
:07A0EF0053B2C453B1C422B7
:0D9FD300EFB40203B2B722EF24FF92B722D1
:0D9FE000EFB40203B2B622EF24FF92B622C6
:0D9FED00EFB40203B2C522EF24FF92C5229B
:07A0F60053B2DF53B1DF227A
:06A0FD00EF24FF92C722D0
:04A10E0075C13E22B7
:04A1120043C76022BD
:04003E007F03DFFE5F
:01004200229B
:109B3800EF1FAC0670011E4C601E0000900B0C74E9
:109B480016F0A37480F0900B0DE014F070F8900BF1
:089B58000CE014F070F080D85D
:019B600022E2
:070A7200440B3E00000000F0
:109F1500538E7F5389F0758ACD758CF8C28DD28C9E
:039F2500D2A9229C
:03000B000291045B
:10910400C0E0C0F0C083C082C0D075D000C000C031
:1091140004C005C006C007900B3EE0FCA3E0FDA31D
:10912400E0FEA3E02401FFE43EFEE43DFDE43CFC5C
:10913400900B3E120459D007D006D005D004D000BD
:0B914400D0D0D082D083D0F0D0E03239
:0F9F6F00900B3EE0FCA3E0FDA3E0FEA3E0FF2289
:109C2D00E4F5D8F5E9F5F9F5D9900BA57407F0A38E
:109C3D007433F0900BA5E0FEA3E0F5EAEEF5FA75AE
:079C4D00DA49D2BFC2DE229A
:0A0A7900410AF500410AF600C1161B
:109DBF00759850438E40538EFE53890F758BD07517
:0D9DCF008DFFC2ABD28ED2BCD2ACD2AF227F
:030023000292B98D
:1092B900C0E0C083C082C0D075D000C00730990615
:1092C900C299C2168024309821C298900AF5E0C349
:1092D900940A4002E4F0900AF5E0FF04F074F72FD5
:1092E900F582E4340AF583E599F0D007D0D0D0822D
:0592F900D083D0E0323B
:0F9F7E00900AF5E0FFA3E06F6003D38001C322D8
:109D6400900AF6E0C3940A4002E4F0900AF6E0FF99
:0F9D740004F074F72FF582E4340AF583E0FF2240
:080003002016FDD2168F992290
:0B9A0500900B4EEBF0A3EAF0A3E9F099
:109A1000E4FEEEC39D501A900B4EE0FBA3E0FAA3C8
:109A2000E0F98E82758300120155FF1200030E804B
:019A3000E154
:019A31002212
:109F280012013CFF600C120003740129F9E43AFAAB
:039F380080EE2296
:06A10300AE07120003226A
:0E9F8D00E4F5C7F5C5F5C675C3FF75C4FF2220
:109C0500E4F5C275C78175C501900BA7EEF0A3EF0A
:109C1500F0900BA7E0F5C3A3E0F5C475C65A75C669
:089C2500A500129F8DAFC222C1
:109C540075C78175C502900BA7EEF0A3EFF0900BCA
:109C6400A7E0F5C3A3E0F5C4AF058FC275C65A7566
:069C7400C6A500029F8D51
:109C9E0075C78175C503900BA7EEF0A3EFF0900B7F
:109CAE00A7E0F5C3A3E0F5C475C65A75C6A50002B4
:029CBE009F8D78
:109DDC008F20E4FF300704D2A38002C2A3D2A1E5F6
:0C9DEC002025E0F520C2A10FEFB408E82C
:019DF8002248
:109DF900E4FFE52025E0F520D2A130A204D20080BD
:0C9E090002C200C2A10FEFB408E8AF20B5
:019E1500222A
:0E0A83004B0B010A4C0C442020CCCCCCCF589D
:05914F00900A2BEFF077
:10915400C2C4C2C412A02A900A2BE0FF129887123C
:109164009820C2A47F22129DDCE4900A2CF0900A7D
:109174002CE0FFC39404501774072FF582E4340BDA
:10918400F583E0FF129DDC900A2CE004F080DFD22E
:04919400A402A07F12
:0BA02A00D2A4D2A1D2C4C2A7C2C3229C
:02988700AB072D
:10988900EB75F02684AFF0EF75F00DA4ACF024026F
:10989900FDE43CFC900B02EDF0A3E054FEF0AE04B5
:0F98A900C3EE94014004E04401F0900B07EBF094
:0198B800228D
:10982000C2A4E4FF129DDCE4900A2DF0900B01E04D
:10983000FF900A2DE0FEC39F501774022EF582E4BC
:10984000340BF583E0FF129DDC900A2DE004F080DC
:03985000DBD2A4C4
:0198530022F2
:0B9FFA000000007F0E7EF8DEFEDFFCA2
:01A005002238
:0E9F9B00AD07AF051DEF6005129FFA80F5229D
:0BA03500D2A5000030A502D322C322F8
:0B7BCE00900A32EBF0A3EAF0A3E9F00C
:107BD900C2A47F20129DDCE4900A38F0900A38E0B4
:107BE900FFC39420501F900A32E0FBA3E0FAA3E000
:107BF900F98F82758300120155FF129DDC900A38B6
:107C0900E004F080D7D2A47F01129F9BC2A47F22F7
:107C1900129DDCE4900A38F0900A38E0FFC394041E
:107C2900501F900A35E0FBA3E0FAA3E0F98F8275B3
:107C39008300120155FF129DDC900A38E004F080A0
:0C7C4900D7D2A4D2A77F01129F9BC2A734
:017C5500220C
:0B851B00900A2BEBF0A3EAF0A3E9F0BC
:10852600900004120155FF7024900A2BE0FBA3E093
:10853600FAA3E0F912013C900A2EF0900001120114
:1085460055900A2FF0A374CCF0A3F0800F900A2E5A
:10855600EFF0A374CCF0A3F0A374CEF012A0769043
:108566000A357401F0A3740AF0A3742EF0900A2B56
:10857600E0FBA3E0FAA3E0F9127BCE7F037E0012B4
:058586009B3802A07FFC
:0B919800900A2BEBF0A3EAF0A3E9F033
:1091A300C2A7C2A47F24129DDCE4900A2EF0129D74
:1091B300F9900A2BE0FBA3E0FAA3E0F9A3E0F58220
:1091C300758300EF120194900A2EE004F0E0C3943B
:0D91D3002040DBD2A420A5FD20A6FAD2A7E3
:0191E000226C
:09A07600D2C3C2A77F01029F9B27
:09A07F00C2C3D2A77F01029F9B1E
:100A9100C1114206350000C112C113C115C1144173
:080AA10004320042043300009E
:109F3B00759A50438E0475D7D075D6FF438E107526
:039F4B00AF012241
:0300430002711D2A
:10711D00C0E0C0F0C083C082C0D075D000C000C038
:03712D0004C00794
:10713000E59A20E0030271BA539AFE900432E59B6F
:10714000F030110BC3900635E09402507780483040
:107150001204C215806E900432E0FFB4020E2013B8
:107160000BD215900635E4F0A3F08058EFB4030E6F
:1071700020130B301508C215C213D2128046EFB48B
:107180001007201304D213803B30152AC213C3907A
:107190000635E09402502D900432E0FF900635E46D
:1071A00075F001120221FC743525F0F58274043C5F
:1071B000F583EFF0800EC213800AE59A30E10553A3
:0471C0009AFDC2145E
:1071C400D007D004D000D0D0D082D083D0F0D0E08B
:0171D4003288
:109F5F00C211E4900635F0A3F0C212C213C215224B
:0AA06C00D211E4900635F0A3F022B3
:0B902000900B51EBF0A3EAF0A3E9F085
:10902B0030123A900635E0FEA3E0FF900B51E0FBC7
:10903B00A3E0FAA3E0F8AC02AD037B017A04793527
:10904B00120116900635E0FEA3E0FF900433EEF01C
:10905B00A3EFF0E4900635F0A3F0C21222E4FEFF7A
:01906B0022E2
:1099A900900B54EBF0A3EAF0A3E9F07B017A047978
:1099B90035C003C002C001900B54E0FBA3E0FAA339
:0E99C900E0F91204E6900635E0FEA3E0FF226E
:08A0C7002014FDD2148F9B222E
:10985400900B57EBF0A3EAF0A3E9F0900B57E0FB71
:10986400A3E0FAA3E0F912013C6017900B57A3E4BC
:1098740075F001120221A9F0FA12013CFF12A0C7EF
:0398840080D92266
:0B9A3200900B5AEBF0A3EAF0A3E9F060
:109A3D00E4FEEEC39D501A900B5AE0FBA3E0FAA38F
:109A4D00E0F98E82758300120155FF12A0C70E80BA
:019A5D00E127
:019A5E0022E5
:10769E002B2B2B006275666665725B25755D3A2035
:1076AE0025730D0A00610041542B554152540D00B3
:1076BE0041542B575343414E0D0041542B574D4FC0
:1076CE0044453D5354410D0041542B575354413DB5
:1076DE000041542B57414E4E0D0041542B57534CE5
:1076EE004B0D0041542B50494E473D0041542B53F6
:1076FE004F434B413D554450532C0041542B534F57
:10770E00434B4C4B410D0041542B534F434B44497B
:10771E0053413D6F66660D0A0041542B4D41430D9A
:10772E000041542B5A0D0041542B454E544D0D0023
:086FA800EBF0A3EAF0A3E9F00D
:106FB0007FC87E00129B387BFF7A76799E129854A8
:106FC00012A06C7F2C7E01129B387B017A0B795DBD
:106FD0001299A9900B5DE0FBA3E0FAA3E0F98F8280
:106FE0008E83E4120194900A2EEEF0A3EFF0900B42
:106FF0005DE0F9A3E0FAA3E0900A30C9F0A3EAF05B
:10700000A3E9F07BFF7A7679A2121D027BFF7A76E4
:1070100079B312985412A06C7F2C7E01129B387B9E
:10702000017A0B795D1299A9900B5DE0FBA3E0FA60
:10703000A3E0F98F828E83E4120194900A2EEEF081
:10704000A3EFF0900B5DE0F9A3E0FAA3E0900A3023
:10705000C9F0A3EAF0A3E9F07BFF7A7679A2121DCA
:0270600002D359
:01706200220B
:108942007BFF7A7679B512985412A06C7FD07E079D
:10895200129B387B017A0B79601299A9900B60E027
:10896200FBA3E0FAA3E0F98F828E83E412019490D4
:108972000A2EEEF0A3EFF0900B60E0F9A3E0FAA369
:10898200E0900A30C9F0A3EAF0A3E9F07BFF7A761F
:0689920079A2121D02D3C0
:0189980022BC
:108999007BFF7A7679BE12985412A06C7FD07E073D
:1089A900129B387B017A0B79631299A9900B63E0CA
:1089B900FBA3E0FAA3E0F98F828E83E4120194907D
:1089C9000A2EEEF0A3EFF0900B63E0F9A3E0FAA30F
:1089D900E0900A30C9F0A3EAF0A3E9F07BFF7A76C8
:0689E90079A2121D02D369
:0189EF002265
:1089F0007BFF7A7679C812985412A06C7F2C7E0186
:108A0000129B387B017A0B79661299A9900B66E06C
:108A1000FBA3E0FAA3E0F98F828E83E41201949025
:108A20000A2EEEF0A3EFF0900B66E0F9A3E0FAA3B4
:108A3000E0900A30C9F0A3EAF0A3E9F07BFF7A7670
:068A400079A2121D02D311
:018A4600220D
:0B7C5600900B15EBF0A3EAF0A3E9F09F
:107C61007BFF7A7679D6129854900B15E0FBA3E04E
:107C7100FAA3E0F91298547F2C12A0C7900B18E0D8
:107C8100FBA3E0FAA3E0F91298547F0D12A0C712EA
:107C9100A06C7F2C7E01129B387B017A0B791B1221
:107CA10099A9900B1BE0FBA3E0FAA3E0F98F828E68
:107CB10083E4120194900A2EEEF0A3EFF0900B1BD7
:107CC100E0F9A3E0FAA3E0900A30C9F0A3EAF0A337
:0C7CD100E9F07BFF7A7679A2121D02D345
:017CDD002284
:108A47007BFF7A7679DF12985412A06C7F2C7E0117
:108A5700129B387B017A0B79691299A9900B69E00F
:108A6700FBA3E0FAA3E0F98F828E83E412019490CE
:108A77000A2EEEF0A3EFF0900B69E0F9A3E0FAA35A
:108A8700E0900A30C9F0A3EAF0A3E9F07BFF7A7619
:068A970079A2121D02D3BA
:018A9D0022B6
:108A9E007BFF7A7679E812985412A06C7FF47E01EF
:108AAE00129B387B017A0B796C1299A9900B6CE0B2
:108ABE00FBA3E0FAA3E0F98F828E83E41201949077
:108ACE000A2EEEF0A3EFF0900B6CE0F9A3E0FAA300
:108ADE00E0900A30C9F0A3EAF0A3E9F07BFF7A76C2
:068AEE0079A2121D02D363
:018AF400225F
:0B83C000900B27EBF0A3EAF0A3E9F01C
:1083CB007BFF7A7679F1129854900B27E0FBA3E0B0
:1083DB00FAA3E0F91298547F0D12A0C712A06C7F7C
:1083EB002C7E01129B387B017A0B792A1299A9906A
:1083FB000B2AE0FBA3E0FAA3E0F98F828E83E41251
:10840B000194900A2EEEF0A3EFF0900B2AE0F9A363
:10841B00E0FAA3E0900A30C9F0A3EAF0A3E9F07BFD
:09842B00FF7A7679A2121D02D33A
:018434002225
:0B7CDE00900B1EEBF0A3EAF0A3E9F00E
:107CE9007BFF7A7679FA129854900B1EE0FBA3E099
:107CF900FAA3E0F91298547F2C12A0C7900B21E047
:107D0900FBA3E0FAA3E0F91298547F0D12A0C71261
:107D1900A06C7FF47E01129B387B017A0B792412C7
:107D290099A9900B24E0FBA3E0FAA3E0F98F828ED6
:107D390083E4120194900A2EEEF0A3EFF0900B2445
:107D4900E0F9A3E0FAA3E0900A30C9F0A3EAF0A3AE
:0C7D5900E9F07BFF7A7679A2121D02D3BC
:017D650022FB
:108AF5007BFF7A77790912985412A06C7FF47E0176
:108B0500129B387B017A0B796F1299A9900B6FE054
:108B1500FBA3E0FAA3E0F98F828E83E4120194901F
:108B25000A2EEEF0A3EFF0900B6FE0F9A3E0FAA3A5
:108B3500E0900A30C9F0A3EAF0A3E9F07BFF7A766A
:068B450079A2121D02D30B
:018B4B002207
:108B4C007BFF7A77791512985412A06C7FF47E0112
:108B5C00129B387B017A0B79721299A9900B72E0F7
:108B6C00FBA3E0FAA3E0F98F828E83E412019490C8
:108B7C000A2EEEF0A3EFF0900B72E0F9A3E0FAA34B
:108B8C00E0900A30C9F0A3EAF0A3E9F07BFF7A7613
:068B9C0079A2121D02D3B4
:018BA20022B0
:108BA3007BFF7A77792712985412A06C7F2C7E0171
:108BB300129B387B017A0B79751299A9900B75E09A
:108BC300FBA3E0FAA3E0F98F828E83E41201949071
:108BD3000A2EEEF0A3EFF0900B75E0F9A3E0FAA3F1
:108BE300E0900A30C9F0A3EAF0A3E9F07BFF7A76BC
:068BF30079A2121D02D35D
:018BF9002259
:108BFA007BFF7A77792F12985412A06C7F2C7E0112
:108C0A00129B387B017A0B79781299A9900B78E03C
:108C1A00FBA3E0FAA3E0F98F828E83E41201949019
:108C2A000A2EEEF0A3EFF0900B78E0F9A3E0FAA396
:108C3A00E0900A30C9F0A3EAF0A3E9F07BFF7A7664
:068C4A0079A2121D02D305
:018C50002201
:10888F007BFF7A77793512985412A06C7F2C7E017A
:10889F00129B387B017A0B797B1299A9900B7BE0A5
:1088AF00FBA3E0FAA3E0F98F828E83E41201949088
:1088BF000A2EEEF0A3EFF0900B7BE0F9A3E0FAA302
:1088CF00E0900A30C9F0A3EAF0A3E9F07BFF7A76D3
:0988DF0079A2121D02129F5FD361
:0188E800226D
:03A11A00029F3B66
:0CA00600126FB01289F012894202888F9C
:09A08800126FB012899902888F51
:10994B00900B2D126FA81289F0900B30E0F9A3E069
:10995B00FAA3E0900B18C9F0A3EAF0A3E9F0900B7F
:0F996B002DE0FBA3E0FAA3E0F9127C5602888FEF
:09A09100126FB0128A9E02888F42
:09A09A00126FB0128A4702888F90
:109E9300900B7E126FA8900B7EE0FBA3E0FAA3E089
:079EA300F91283C002888F51
:109A5F00900B33126FA8900B36E0F9A3E0FAA3E056
:109A6F00900B21C9F0A3EAF0A3E9F0900B33E0FBD0
:0C9A7F00A3E0FAA3E0F9127CDE02888F5D
:09A0A300126FB0128AF502888FD9
:09A0AC00126FB0128B4C02888F78
:09A0B500126FB0128BA302888F18
:09A0BE00126FB0128BFA02888FB8
:079FA9007FFA129FB07FFA5E
:079FB000AE071FEE70FA225C
:109F4E00AD07AF051DEF6008129FA9129FA980F201
:019F5E0022E0
:05A10900D292D2952264
:109E1600E4FEC295EF30E704D2938002C293EF25A9
:099E2600E0FFD2950EEEB408E94C
:019E2F002210
:10000E00E4FFFEC295EF25E0FF3094010FD2950E6E
:04001E00EEB408EF45
:0100220022BB
:0CA01200D292C292129E167F02029FB0F2
:03A11D00029E1689
:03A1160012000E26
:01A119002223
:08A0CF007F0512A012D29222BB
:0AA040007F2612A01212A116D29280
:01A04A0022F3
:0AA04B007F2912A01212A116D29272
:01A0550022E8
:10977F00E4900A2BF0A3F07F2712A012D2927F0A57
:10978F007E00129B3812A056900A2CEFF0BF1010DB
:10979F00900A2BE0FF04F0EFD394C840E17FFA2248
:0597AF00900A2CE0FF10
:0197B4002292
:0AA056007F2C12A01212A116D29264
:01A0600022DD
:0B965900900A2BEBF0A3EAF0A3E9F06D
:109664007F2212A012E4900A2EF0900A2BE0FBA3B2
:10967400E475F001120221A9F0FA12013CFF12A1D3
:0F9684001D900A2EE004F0E0C3940440DDD29262
:0196930022B4
:0B969400900A2BEBF0A3EAF0A3E9F032
:10969F007F2312A012E4900A2EF0900A2BE0FBA376
:1096AF00E475F001120221A9F0FA12013CFF12A198
:0F96BF001D900A2EE004F0E0C3940440DDD29227
:0196CE002279
:0B96CF00900A2BEBF0A3EAF0A3E9F0F7
:1096DA007F2412A012E4900A2EF0900A2BE0FBA33A
:1096EA00E475F001120221A9F0FA12013CFF12A15D
:0F96FA001D900A2EE004F0E0C3940440DDD292EC
:01970900223D
:0B970A00900A2BEBF0A3EAF0A3E9F0BB
:109715007F4012A012E4900A2EF012A116900A2B97
:10972500E0FBA3E475F001120221A9F0FAEF1201A2
:0F97350082900A2EE004F0E0C3940640DDD29249
:019744002202
:0E927300900B39EFF0A3EBF0A3EAF0A3E9F0C3
:109281007F2D12A012900B39E0FF12A11DE4900B6B
:109291003DF012A116900B3AE0FBA3E475F0011228
:1092A1000221A9F0FAEF120182900B3DE004F0E0F7
:0792B100C3940640DDD292D8
:0192B8002293
:10816B00900A2BEFF0A3EBF0A3EAF0A3E9F07F3139
:10817B0012A012900A2BE0FF12A11D900A2CE0FB1B
:10818B00A3E475F001120221A9F0FA12013CFF12CF
:10819B00A11D900A2CE0FBA3E475F001120221A9AA
:1081AB00F0FA12013CFF12A11D900A2CE0FBA3E494
:1081BB0075F001120221A9F0FA12013CFF12A11D68
:1081CB00900A2CE0FBA3E475F001120221A9F0FA4E
:0A81DB0012013CFF12A11DD29222F6
:109D4400900A2BEFF0A3EDF07F3412A012900A2BAF
:109D5400E0FF12A11D900A2CE0FF12A11DD2922255
:109A8B00900A2BEFF0A3ECF0A3EDF07F3212A012B3
:109A9B00900A2BE0FF12A11D900A2CA3E0FF12A14C
:0C9AAB001D900A2CE0FF12A11DD2922297
:109AB700900A2BEFF0A3ECF0A3EDF07F3312A01286
:109AC700900A2BE0FF12A11D900A2CA3E0FF12A120
:0C9AD7001D900A2CE0FF12A11DD292226B
:0E84A900900A2BEFF0A3EBF0A3EAF0A3E9F0AA
:1084B7007F3912A012900A2BE0FF12A11D900A2FFC
:1084C700A3E0FF12A11D900A2FE0FF12A11DE49067
:1084D7000A31F0A3F0900A2FE0FEA3E0FFC3900A51
:1084E70032E09F900A31E09E5027900A2CE0FBA3D0
:1084F700E475F001120221A9F0FA12013CFF12A162
:108507001D900A32E004F070CC900A31E004F0804C
:03851700C4D29239
:01851A00223E
:0597B500900A2FEFF007
:1097BA007F3B12A012900A2FE0FF12A11D12A116E0
:1097CA00900A30E4F0A3EFF012A116EFFE900A31EE
:1097DA00E02400FF900A30E03EFEF0A3EFF0D292C0
:0197EA00225C
:10002600900BA9EFF07F2E12A012900BA9E0FF1201
:05003600A11DD2922281
:107D6600900A2FEFF0900A32EBF0A3EAF0A3E9F0C5
:087D7600900A30ECF0A3EDF0DF
:107D7E004C606B7F3C12A012900A2FE0FF12A11DE7
:107D8E00900A30A3E0FF12A11D900A30E0FF12A16D
:107D9E001D12003EE4900A35F0A3F0900A30E0FE8A
:107DAE00A3E0FFC3900A36E09F900A35E09E502C68
:107DBE0012A116900A32E0FBA3E0FAA3E0F9EF124B
:107DCE000182900A33E475F00112020B900A36E03C
:0E7DDE0004F070C7900A35E004F080BFD29226
:017DEC002274
:10906C00900B42EFF0A3EBF0A3EAF0A3E9F07F2F13
:10907C0012A012900B42E0FF12A11D12A116900B30
:10908C0043E0FBA3E475F001120221A9F0FAEF1200
:10909C00018212A116900B43E0FBA3E475F00112C0
:0C90AC000221A9F0FAEF120182D29222F8
:05945200900A2BEFF071
:10945700E4A3F0A3F07F3512A012900A2BE0FF12CD
:10946700A11DD2927F057E00129B3812A056900A4A
:109477002DEFF0BF1010900A2CE0FF04F0EFD3940B
:0B948700C840E17FFA22900A2DE0FFB0
:0194920022B7
:05949300900B81EFF0D9
:10949800E4A3F0A3F07F3D12A012900B81E0FF122D
:1094A800A11DD2927F057E00129B3812A056900B08
:1094B80083EFF0BF1010900B82E0FF04F0EFD3941D
:0B94C800C840E17FFA22900B83E0FF18
:0194D3002276
:0594D400900B84EFF095
:1094D900E4A3F0A3F07F3712A012900B84E0FF12EF
:1094E900A11DD2927F057E00129B3812A056900BC7
:1094F90086EFF0BF1010900B85E0FF04F0EFD394D6
:0B950900C840E17FFA22900B86E0FFD3
:019514002234
:05951500900B87EFF050
:10951A00E4A3F0A3F07F3612A012900B87E0FF12AB
:10952A00A11DD2927F057E00129B3812A056900B85
:10953A0089EFF0BF1010900B88E0FF04F0EFD3948E
:0B954A00C840E17FFA22900B89E0FF8F
:0195550022F3
:05955600900B8AEFF00C
:10955B00E4A3F0A3F07F3812A012900B8AE0FF1265
:10956B00A11DD2927F057E00129B3812A056900B44
:10957B008CEFF0BF1010900B8BE0FF04F0EFD39447
:0B958B00C840E17FFA22900B8CE0FF4B
:0195960022B2
:059D8300900A2BEFF037
:109D88007F3012A012900A2BE0FF12A11D12003E94
:089D980012003E12A116D29246
:019DA00022A0
:10997A007F1912A01212003E12003E12A116900A7E
:10998A002BE4F0A3EFF012A116EFFE900A2CE024CC
:0E999A0000FF900A2BE03EFEF0A3EFF0D29209
:0199A800229C
:107DED00900B8DEBF0A3EAF0A3E9F07BFF7A7D79A0
:107DFD00EDC003C002C001900B8DE0FBA3E0FAA320
:107E0D00E0F91204E67BFF7AA17912C003C002C02B
:107E1D0001900B8DE0FBA3E0FAA3E0F990000312B3
:107E2D0005657BFF7AA1790EC003C002C001900BDE
:107E3D008DE0FBA3E0FAA3E0F9900006120565754D
:107E4D008E54E4F594F593F592F591F596F595F537
:107E5D00B2F5B1F5B4F5B3F5CAF5C9F5CCF5CB125C
:057E6D009C2D029F1591
:1071D500900AE8EFF0AF05A3ECF0A3EFF0E4A3F01D
:1071E500900AEBE0FFC39403400302728B7401A87D
:1071F50007088002C333D8FCFF900AE8E05F900AD5
:10720500ECF06079129F6FC006C007900AEBE0753D
:10721500F008A4FF900AF2E0FBA3E0FAA3E02FF93F
:10722500EA35F0FA90000CD007D006120405900A52
:10723500E9E0FEA3E0FFE4FCFDC006C007A3E0759E
:10724500F008A4FF900AF2E0FBA3E0FAA3E02FF90F
:10725500EA35F0FA900010D007D006120405900A1E
:10726500ECE0FF900AF2E0FBA3E0FAA3E0F990005E
:107275000912053589828A83E4FD1205E8900AEB37
:06728500E004F00271E5D7
:01728B0022E0
:10469900E4900AEDF0129F6F900AEE120459900A05
:1046A900EDE075F008A4FF900AF2E0FBA3E0FAA39D
:1046B900E02FF9EA35F0FA9000101203D5EC4D4ECF
:1046C9004F70030247E590000C1203D5900AEEE003
:1046D900F8A3E0F9A3E0FAA3E0FBC31203C4900A2C
:1046E900EDE075F0084032A4FF900AF2E0FBA3E088
:1046F900FAA3E02FF9EA35F0FA90000C1204299098
:104709000AEEE0FCA3E0FDA3E0FEA3E0C39BFFEEFD
:104719009AFEED99FDEC98803FA4FF900AF2E0FB28
:10472900A3E0FAA3E02FF9EA35F0FA90000C12039E
:10473900D51203B7900AEEE0F8A3E0F9A3E0FAA3D3
:10474900E02FFFEA3EFEE93DFDE83CFCEF2401FFD6
:10475900E43EFEE43DFDE43CFCC004C005C006C0E7
:1047690007900AEDE075F008A4FF900AF2E0FBA3B8
:10477900E0FAA3E02FF9EA35F0FA900010120429C3
:10478900D007D006D005D004C31203C4504E900AF6
:10479900EDE075F008A4FF900AF2E0FBA3E0FAA3AC
:1047A900E02FF9EA35F0FA900010120496000000A3
:1047B90000900AEDE0FF7401A807088002C333D80E
:1047C900FCFF900AF2E0FBA3E0FAA3E0F9900009EC
:1047D90012053589828A837D011205E8900AEDE088
:0B47E90004F0E0C39403500302469E5E
:0147F40022A2
:10959700900A2BEDF0EF24FE601424FE601824FDE2
:1095A70060162406702A900A2BE0FF029FD3900AC8
:1095B7002BE0FF029FE08010900A2BE0FF129FD361
:1095C700900A2BE0FF129FE0900A2BE0FF129FED1D
:0195D7002271
:107F7700900AF2EBF0A3EAF0A3E9F07BFF7A7F79AE
:107F870077C003C002C001900AF2E0FBA3E0FAA3A6
:107F9700E0F91204E67BFF7A467999C003C002C074
:107FA70001900AF2E0FBA3E0FAA3E0F990000312C4
:107FB70005657BFF7A7179D5C003C002C001900ABD
:107FC700F2E0FBA3E0FAA3E0F99000061205657B57
:107FD700FF7A957997C003C002C001900AF2E0FBCF
:0D7FE700A3E0FAA3E0F9900009120565225D
:0E0AA900440AE000000000440AE400000000DF
:109B6100900AE4120459129F6F900AE0120459906E
:109B71000ADDE0FBA3E0FAA3E0F990000912053544
:099B810089828A83E4FF0205E8F1
:106AE000129F6F900AD9120459900AE4E0FCA3E0C7
:106AF000FDA3E0FEA3E0FFEC4D4E4F7003026BB42C
:106B0000900AE0E0FCA3E0FDA3E0FEA3E0FF900A12
:106B1000D9E0F8A3E0F9A3E0FAA3E0FBC31203C4B1
:106B2000900AE0E04024F8A3E0F9A3E0FAA3E0FB38
:106B3000900AD9E0FCA3E0FDA3E0FEA3E09BFFEEFA
:106B40009AFEED99FDEC98FC8032FCA3E0FDA3E0F9
:106B5000FEA3E0FF1203B7900AD9E0F8A3E0F9A37F
:106B6000E0FAA3E02FFFEA3EFEE93DFDE83CFCEF42
:106B70002401FFE43EFEE43DFDE43CFC900AE4E039
:106B8000F8A3E0F9A3E0FAA3E0FBC31203C4502486
:106B9000900AE412046500000000900ADDE0FBA307
:106BA000E0FAA3E0F990000912053589828A837F13
:046BB000011205E8E1
:016BB40022BE
:107FF400900ADDEBF0A3EAF0A3E9F07BFF7A7F7946
:10800400F4C003C002C001900ADDE0FBA3E0FAA3C0
:10801400E0F91204E67BFF7A6A79E0C003C002C08B
:1080240001900ADDE0FBA3E0FAA3E0F9900003125B
:1080340005657BFF7A9B7961C003C002C001900A89
:10804400DDE0FBA3E0FAA3E0F99000061205657BEE
:10805400FF7AA079FDC003C002C001900ADDE0FBF5
:0D806400A3E0FAA3E0F990000912056522DF
:109E4A000D0A00202000082008005E430D0A004980
:099E5A00415031353A7E2420000C
:100AB700603308A4010000000000000000000000EF
:100AC700000000000000000000000000000000001F
:100AD700000000000000000000000000000000000F
:070AE7000000000000000008
:10872100900A30EBF0A3EAF0A3E9F0900A33E0FB02
:10873100A3E0FAA3E0F912013C602A900A33A3E412
:1087410075F001120221A9F0FA12013CFF900A30E2
:10875100E0FBA3E475F001120221A9F0FA12013C39
:108761006F60C8C322900A30E0FBA3E0FAA3E0F9EE
:0C87710012013C6003B42002D322C3229A
:1091E100900A30EBF0A3EAF0A3E9F0900A30E0FB3B
:1091F100A3E0FAA3E0F912013C602C900A33E0FBF2
:10920100A3E475F001120221A9F0FA12013CFF90CA
:109211000A30E0FBA3E475F001120221A9F0FA1271
:09922100013C6F60C6C322D32298
:10151B009008A4E0FF30E01654FEF09008A1E0FB29
:10152B00A3E0FAA3E02418F9E43AFA129F28129FD9
:06153B007E40030218DBF4
:10154100129D64900A2CEFF0640D6008E0640A605B
:10155100030216259008A4E0FFC313FEEF5401FF18
:10156100EE547FFE04547FFD25E04FF074A52EF567
:1015710082E43408F583E4F07BFF7A9E794A129F76
:1015810028E4900A2BF09008A1E0FBA3E0FAA3E085
:10159100F9900026120155FF900A2BE0FEC39F40EF
:1015A1000302188D9008A1A3A3E090002312053532
:1015B100EE75F00EA429F9EA35F0FA900A33EBF052
:1015C100A3EAF0A3E9F07B017A0879A512872150FB
:1015D1004A7B017A0879A5C003C002C0019008A125
:1015E100E0FBA3E0FAA3E0F9900023120535900A8D
:1015F1002BE075F00EA429F9EA35F0FA90000B12F0
:10160100053589828A83D001D002D0031205E87B97
:10161100FF7A9E794A129F2802188D900A2BE004C6
:0F162100F0021587900A2CE06409600302180C90
:10163000A3F0A3F09008A4E0C313547F24A5F5827F
:10164000E43408F583E4F0900A2BF09008A1E0FB65
:10165000A3E0FAA3E0F9900026120155FF900A2BAF
:10166000E0FEC39F50439008A1A3A3E09000231283
:101670000535EE75F00EA429F9EA35F0FA900A3333
:10168000EBF0A3EAF0A3E9F07B017A0879A51291C7
:10169000E1500E900A2DE004F0900A2BE0900A2E03
:1016A000F0900A2BE004F080A2900A2DE0C394028F
:1016B000500302175D7BFF7A9E794A129F28E490BF
:1016C0000A2BF09008A1E0FBA3E0FAA3E0F9900058
:1016D00026120155FF900A2BE0FEC39F505A90003E
:1016E00023120535EE75F00EA429F9EA35F0FA90CB
:1016F0000A337401F0A37408F0A374A5F0126EE924
:10170000EA494B602B9008A1E0FBA3E0FAA3E0F9C3
:10171000900023120535900A2BE075F00EA429F9EC
:10172000EA35F0FA129F287BFF7A9E794D129F28A6
:10173000900A2BE004F0808B7BFF7A9E794A129FFF
:10174000289008A1E0FBA3E0FAA3E02418F9E43A0A
:10175000FA129F287B017A0879A5021839900A2D80
:08176000E0640160030218DBE4
:101768009008A4E0FFC313547F900A2FF09008A1BB
:10177800E0FBA3E0FAA3E0F9900023120535900AF4
:101788002EE075F00EA429F9EA35F0FA129F00EF61
:10179800547F25E0FF9008A4E054014FF09008A181
:1017A800E0FBA3E0FAA3E0F9900023120535900AC4
:1017B8002EE075F00EA429F9EA35F0FA900A33EB19
:1017C800F0A3EAF0A3E9F09008A4E0C313547FFF64
:1017D800900A36E4F0A3EFF07B017A0879A5128528
:1017E800F39008A4E0FFC313547F24A5F582E434E2
:1017F80008F583E4F0900A2FE024A5F9E43408FA08
:021808007B0162
:02180A00802D2F
:10180C00900A2CE0640870289008A4E0FFC313FE33
:10181C00547FD3940050030218DBEF5401FFEE14F5
:10182C00547FFE25E04FF07BFF7A9E7950029F2873
:10183C00900A2CE0B4030B7BFF7A9E7954129F28FC
:10184C00803F900A2CE0640C70427F1B1200037FD7
:10185C005B1200037F481200037F0D1200037F7E92
:10186C001200037F201200037F231200037F20123B
:10187C0000037F1B1200037F5B1200037F4A1200E0
:10188C00039008A4E04401F05401F0229008A4E075
:10189C00C313547FC394324003021539900A2CE0D1
:1018AC00FF120003900A2CE0FB9008A4E0FEC31387
:1018BC00FDEE5401FEED547FFD04547F25E04EF007
:0C18CC0074A52DF582E43408F583EBF0E0
:0418D800021539229A
:0B86C100900A2BEBF0A3EAF0A3E9F015
:1086CC00E4FF900A2BE0FBA3E0FAA3E0F98F82759C
:1086DC008300120155FE60219008A1E0FBA3E0FA93
:1086EC00A3E02418F9E43AFAEF7C0029F9EC3AFA01
:1086FC00EE1201820FEFB40AC99008A1E0FBA3E0CF
:10870C00FAA3E02418F9E43AFA7E00E92FF9EE3ADC
:05871C00FAE4020182F5
:109B8A00C003C002C0019008A1E0FBA3E0FAA3E071
:109B9A00F99000231205659008A1E0FBA3E0FAA35F
:099BAA00E0F9900026ED0201949F
:03A12000029F2873
:0CA01E00129F287BFF7A9E794A029F283F
:10787300900A2BECF0A3EDF0129F28900A2BE0FE68
:10788300A3E0FF7C277D101201B67C007D0A120164
:10789300B6ED2430FF120003900A2BE0FEA3E0FFB5
:1078A3007C037DE81201B67C007D0A1201B6ED244B
:1078B30030FF120003900A2BE0FEA3E0FF7C007D63
:1078C300641201B67C007D0A1201B6ED2430FF126A
:1078D3000003900A2BE0FEA3E0FF7C007D0A120167
:1078E300B67C007D0A1201B6ED2430FF120003902E
:1078F3000A2BE0FEA3E0FF7C007D0A1201B6ED2413
:0579030030FF0200034B
:10773E00900A2BECF0A3EDF0129F28900A2BE0FE9E
:10774E00A3E0FF7C277D101201B67C007D0A12019A
:10775E00B6ED2430FF120003900A2BE0FEA3E0FFEB
:10776E007C037DE81201B67C007D0A1201B6ED2481
:10777E0030FF120003900A2BE0FEA3E0FF7C007D99
:10778E00641201B67C007D0A1201B6ED2430FF12A0
:10779E000003900A2BE0FEA3E0FF7C007D0A12019D
:1077AE00B67C007D0A1201B6ED2430FF1200039064
:1077BE000A2BE0FEA3E0FF7C007D0A1201B6ED2449
:0E77CE0030FF1200037BFF7A9E794A029F284B
:10510F009008A1EBF0A3EAF0A3E9F07BFF7A5179C5
:10511F000FC003C002C0019008A1E0FBA3E0FAA3F7
:10512F00E0F91204E67BFF7AA17920C003C002C028
:10513F00019008A1E0FBA3E0FAA3E0F990000612AA
:10514F0005657BFF7AA0791EC003C002C0019008DD
:10515F00A1E0FBA3E0FAA3E0F99000091205657B3B
:10516F00FF7A787973C003C002C0019008A1E0FBF9
:10517F00A3E0FAA3E0F990000C1205657BFF7A77A4
:10518F00793EC003C002C0019008A1E0FBA3E0FA82
:10519F00A3E0F990000F1205657BFF7A15791BC00C
:1051AF0003C002C0019008A1E0FBA3E0FAA3E0F95D
:1051BF009000031205657BFF7A8679C1C003C00298
:1051CF00C0019008A1E0FBA3E0FAA3E0F99000155D
:1051DF001205657BFF7A9B798AC003C002C00190DC
:1051EF0008A1E0FBA3E0FAA3E0F990001212056515
:1051FF009008A1E0FBA3E0FAA3E02418F9E43AA891
:10520F0001FCAD037BFF7A9E79597E007F09120165
:10521F00167B007A007900C003C002C0019008A17C
:10522F00E0FBA3E0FAA3E0F99000231205659008D4
:10523F00A1E0FBA3E0FAA3E0F9900026E4120194A9
:03524F00029DBFFE
:10807100900B90EBF0A3EAF0A3E9F07BFF7A807913
:1080810071C003C002C001900B90E0FBA3E0FAA312
:10809100E0F91204E67BFF7A9C7905C003C002C0B7
:1080A10001900B90E0FBA3E0FAA3E0F99000061227
:1080B10005657BFF7A9C7954C003C002C001900B17
:1080C10090E0FBA3E0FAA3E0F99000091205657BBB
:1080D100FF7A9C799EC003C002C001900B90E0FB27
:0D80E100A3E0FAA3E0F99000031205652268
:109ED600900B93E0FBA3E0FAA3E0F9900003EF12E6
:059EE600019402914F00
:10667C00900B93EBF0A3EAF0A3E9F07BFF7A667939
:10668C007CC003C002C001900B93E0FBA3E0FAA313
:10669C00E0F91204E67BFF7A9E79D6C003C002C0F3
:1066AC0001900B93E0FBA3E0FAA3E0F99000041235
:1066BC0005657BFF7AA07935C003C002C001900B41
:1066CC0093E0FBA3E0FAA3E0F99000071205657BC9
:1066DC00FF7A85791BC003C002C001900B93E0FBCD
:1066EC00A3E0FAA3E0F990000A1205657BFF7A910A
:1066FC007998C003C002C001900B93E0FBA3E0FAB1
:10670C00A3E0F990000D120565900B93E0FBA3E05C
:10671C00FAA3E0F990000412053589828A83E4FF1C
:10672C001205E8900B93E0FBA3E0FAA3E0F99000CC
:10673C000412053589828A83E4FF1205E8900B93D5
:10674C00E0FBA3E0FAA3E0F990000412053589827E
:07675C008A83E4FF0205E857
:10934300900B96EBF0A3EAF0A3E9F0900B96E0FB09
:10935300A3E0FAA3E0F91204C6C003C002C001905F
:109363000B96E0FBA3E0FAA3E0F9900003120535A6
:10937300900B30EBF0A3EAF0A3E9F0D001D002D0D8
:049383000302994BFD
:10938700900B99EBF0A3EAF0A3E9F0900B99E0FBBF
:10939700A3E0FAA3E0F91204C6C003C002C001901B
:1093A7000B99E0FBA3E0FAA3E0F99000031205355F
:1093B700900B36EBF0A3EAF0A3E9F0D001D002D08E
:0493C70003029A5FA4
:103F3100900B9CEBF0A3EAF0A3E9F07BFF7A3F79C9
:103F410031C003C002C001900B9CE0FBA3E0FAA3C7
:103F5100E0F91204E67BFF7AA07906C003C002C033
:103F610001900B9CE0FBA3E0FAA3E0F9900003129F
:103F710005657BFF7A937943C003C002C001900BB2
:103F81009CE0FBA3E0FAA3E0F99000061205657B33
:103F9100FF7AA079B5C003C002C001900B9CE0FB81
:103FA100A3E0FAA3E0F99000091205657BFF7AA06E
:103FB10079BEC003C002C001900B9CE0FBA3E0FAF4
:103FC100A3E0F990000C1205657BFF7AA07988C007
:103FD10003C002C001900B9CE0FBA3E0FAA3E0F94F
:103FE10090000F1205657BFF7AA07991C003C00292
:103FF100C001900B9CE0FBA3E0FAA3E0F990001252
:104001001205657BFF7AA079A3C003C002C00190AD
:104011000B9CE0FBA3E0FAA3E0F990001512056503
:104021007BFF7AA0799AC003C002C001900B9CE08B
:10403100FBA3E0FAA3E0F99000181205657BFF7A73
:104041009E7993C003C002C001900B9CE0FBA3E0EA
:10405100FAA3E0F990001B1205657BFF7A9379873B
:10406100C003C002C001900B9CE0FBA3E0FAA3E0F7
:10407100F990001E1205657BFF7AA079ACC003C0E0
:1040810002C001900B9CE0FBA3E0FAA3E0F99000D1
:10409100211205657BFF7A9A7932C003C002C00103
:1040A100900B9CE0FBA3E0FAA3E0F9900024120539
:1040B100657BFF7A907920C003C002C001900B9C00
:1040C100E0FBA3E0FAA3E0F990002712056502A145
:0140D1001AD4
:1073F1006574683009094C696E6B20656E63617054
:107401003A45746865726E657420204857616464FA
:10741100722025783A25783A25783A25783A2578E0
:107421003A25780D0A0009094C6F63616C204950B7
:107431003A2025752E25752E25752E25752020506F
:107441006F72743A2025750D0A00090952656D6F36
:1074510074652049503A2025752E25752E25752EE7
:107461002575202052656D6F7465506F72743A20D6
:1074710025750D0A000909476174657761793A201C
:1074810025752E25752E25752E257520204D6173A8
:107491006B3A2025752E25752E25752E25750D0A1D
:0174A10000EA
:100AEE0052041DC0A80196C0A80101FFFFFF00001F
:100AFE0000000000004804150FA10FA1C0A8016658
:100B0E00617E02970000000000000000000000005F
:100B1E0000000000000000000000000000000000C7
:100B2E0000000000000000000000000000000000B7
:100B3E0000000000000000000000000000000000A7
:100B4E000000000000000000000000000000000097
:100B5E000000000000000000000000000000000087
:100B6E000000000000000000000000000000000077
:100B7E000000000000000000000000000000000067
:100B8E000000000000000000000000000000000057
:100B9E000000000000000000000000000000000047
:100BAE000000000000000000000000000000000037
:100BBE000000000000000000000000000000000027
:100BCE000000000000000000000000000000000017
:100BDE000000000000000000000000000000000007
:100BEE0000000000000000000000000000000000F7
:100BFE0000000000000000000000000000000000E7
:100C0E0000000000000000000000000000000000D6
:100C1E0000000000000000000000000000000000C6
:100C2E0000000000000000000000000000000000B6
:100C3E0000000000000000000000000000000000A6
:100C4E000000000000000000000000000000000096
:100C5E000000000000000000000000000000000086
:100C6E000000000000000000000000000000000076
:100C7E000000000000000000000000000000000066
:100C8E00000062910006000000000000000000005D
:100C9E000000000000000000000000000000000046
:100CAE000000000000000000000000000000000036
:100CBE000000000000000000000000000000000026
:100CCE000000000000000000000000000000000016
:0E0F1E0000000000000000440001FFFFFFFF84
:104FCA00E4900A2CF0A3F0A3F0900298E030E003FA
:104FDA0002510E7F011297B5EE547FFEEF25E0FFD6
:104FEA00EE33FE900298E05401FDED4FFF900297D8
:104FFA00EEF0A3EFF0900297E0C313FEA3E013FFD5
:10500A00EE547FFCAD07D3ED9400EC9400500302FC
:10501A00510E7B017A0279997F01127D66E4900A2A
:10502A002BF0900A2BE0FDFB900297E0C313FEA33E
:10503A00E013FFEE547FFEC3EB9FE49E4003025150
:10504A000E900A2DE0701A74992DF582E43402F557
:10505A0083E064026003025105900A2D04F00251B4
:10506A0005900A2EE0706D900A2BE02499F582E4EF
:10507A003402F583E0FFB41008900A2E7401F08020
:10508A007AEF64037053900311E0FF64616005EFE7
:10509A0064637070EFB4631678147C037D017B013E
:1050AA007A0479297E007F0612090BEF7056900266
:1050BA0098E04401F0900A2CE0FFEF25E0FFE4338A
:1050CA00FE900298E05401FDED4FFF900297EEF03A
:1050DA00A3EFF022E4900A2EF0900A2BE02499F52F
:1050EA0082E43402F583E0FF900A2CE0FE04F074B7
:1050FA00112EF582E43403F583EFF0900A2BE004D5
:04510A00F002502C33
:01510E00227E
:10628000E4900A2BF0A3F0A3F0900007E030E003C5
:10629000026385E4FF1297B5EE547FFEEF25E0FF21
:1062A000EE33FE900007E05401FDED4FFF90000635
:1062B000EEF0A3EFF0900006E0C313FEA3E013FF9F
:1062C000EE547FFCAD07D3ED9400EC940050030234
:1062D00063857B017A007908E4FF127D66E4FDEDB9
:1062E000FB900006E0C313FEA3E013FFEE547FFE15
:1062F000C3EB9FE49E4003026385900A2CE0701676
:1063000074082DF582E43400F583E0640270729025
:106310000A2C04F0806B900A2DE0704174082DF572
:1063200082E43400F583E0FFB41008900A2D740174
:10633000F0804EEFB4032B900007E04401F0900A88
:106340002BE0FFEF25E0FFE433FE900007E054016F
:10635000FDED4FFF900006EEF0A3EFF022E4900A6F
:106360002DF074082DF582E43400F583E0FF900AE7
:106370002BE0FE04F074802EF582E43400F583EF08
:05638000F00D0262DFD8
:0163850022F5
:1098B9007D02E4FF129D44900415E0FCA3E0FDE461
:1098C900FF129AB77B017A047919E4FF12816B9030
:1098D9000417E0FCA3E0FDE4FF129A8BE4FF029475
:0198E900522C
:109CC000AF05900A2FECF0A3EFF0E4FF1284A9E4B3
:109CD000FF129D83900000EFF020E0F3E020E6EF1C
:019CE0002261
:0B8F3300900A2BEBF0A3EAF0A3E9F09A
:108F3E00900006E0C313FEA3E013FFEE547FFE90F5
:108F4E000A2EF0A3EFF0900A2BE0FBA3E0FAA3E0C9
:108F5E00F8AC02AD037B017A007980120116E49021
:108F6E000006F0A3E05401F0E054FEF0900A2EE06B
:048F7E00FEA3E0FF6F
:018F820022CC
:109BB3007D027F01129D447D677C277F01129AB746
:109BC3007B017A0079017F0112816B7D667C277F9F
:099BD30001129A8B7F01029452E9
:109CE100AF05900A2FECF0A3EFF07F011284A97F5A
:109CF10001129D83900005EFF020E0F3E020E6EFF4
:019D0100223F
:0B8F8300900A2BEBF0A3EAF0A3E9F04A
:108F8E00900297E0C313FEA3E013FFEE547FFE9012
:108F9E000A2EF0A3EFF0900A2BE0FBA3E0FAA3E079
:108FAE00F8AC02AD037B017A037911120116E4903D
:108FBE000297F0A3E05401F0E054FEF0900A2EE088
:048FCE00FEA3E0FF1F
:018FD200227C
:109E6300C003C002C00190042FE0FBA3E0FAA3E00B
:089E7300F990000312056522BD
:1070630030B20302711C12997A90042FE0FBA3E063
:10707300FAA3E0F9900006EE8FF01202BC9000062E
:1070830012023730E5237F01129D8390042FE0FB2A
:10709300A3E0FAA3E0F9900009EF1201949000092C
:1070A30012015530E203124FCA90042FE0FBA3E014
:1070B300FAA3E0F990000612023730E423E4FF124A
:1070C3009D8390042FE0FBA3E0FAA3E0F99000086E
:1070D300EF12019490000812015530E2031262800E
:1070E30090042FE0FBA3E0FAA3E0F990000612025C
:1070F30037FFAEF020E42220E51F90000312053590
:10710300EA494B601490042FE0FBA3E0FAA3E0F9F3
:0A7113009000031205351205E42276
:104539007BFF7A7379F1900429E0FF900A2EE4F069
:10454900A3EFF090042AE0FF900A30E4F0A3EFF023
:1045590090042BE0FF900A32E4F0A3EFF090042CD2
:10456900E0FF900A34E4F0A3EFF090042DE0FF900F
:104579000A36E4F0A3EFF090042EE0FF900A38E445
:10458900F0A3EFF0121D027BFF7A74792790041DC6
:10459900E0FF900A2EE4F0A3EFF090041EE0FF90F4
:1045A9000A30E4F0A3EFF090041FE0FF900A32E430
:1045B900F0A3EFF0900420E0FF900A34E4F0A3EFB9
:1045C900F0900415E0FFA3E0900A36CFF0A3EFF0D6
:1045D900121D027BFF7A74794B900419E0FF900A4F
:1045E9002EE4F0A3EFF090041AE0FF900A30E4F013
:1045F900A3EFF090041BE0FF900A32E4F0A3EFF080
:1046090090041CE0FF900A34E4F0A3EFF090041743
:10461900E0FFA3E0900A36CFF0A3EFF0121D027B72
:10462900FF7A747976900421E0FF900A2EE4F0A3D2
:10463900EFF0900422E0FF900A30E4F0A3EFF0904D
:104649000423E0FF900A32E4F0A3EFF0900424E0A1
:10465900FF900A34E4F0A3EFF0900425E0FF900AFC
:1046690036E4F0A3EFF0900426E0FF900A38E4F076
:10467900A3EFF0900427E0FF900A3AE4F0A3EFF0EB
:10468900900428E0FF900A3CE4F0A3EFF0021D0239
:1088E90012A0CF7F647E00129B387B017A04791D28
:1088F9001296597B017A0479211296947B017A04A4
:1089090079251296CF7B017A04792912970A129751
:108919007F90042FE0FBA3E0FAA3E0F99000161280
:1089290005351205E490042FE0FBA3E0FAA3E0F972
:0989390090001F1205350205E44F
:1043D40090042FEBF0A3EAF0A3E9F07BFF7A437992
:1043E400D4C003C002C00190042FE0FBA3E0FAA3F1
:1043F400E0F91204E67B007A007900C003C002C031
:104404000190042FE0FBA3E0FAA3E0F9900003126B
:1044140005657BFF7A457939C003C002C001900469
:104424002FE0FBA3E0FAA3E0F99000101205657BEE
:10443400FF7A8879E9C003C002C00190042FE0FB31
:10444400A3E0FAA3E0F990000D1205657BFF7A9EC4
:104454007963C003C002C00190042FE0FBA3E0FA1B
:10446400A3E0F99000131205657BFF7A707963C0AD
:1044740003C002C00190042FE0FBA3E0FAA3E0F91B
:1044840090000A1205657BFF7A9879B9C003C002CF
:10449400C00190042FE0FBA3E0FAA3E0F99000161A
:1044A4001205657BFF7A9C79C0C003C002C00190ED
:1044B400042FE0FBA3E0FAA3E0F9900019120565CC
:1044C4007BFF7A8F7933C003C002C00190042FE0D0
:1044D400FBA3E0FAA3E0F990001C1205657BFF7AC8
:1044E4009B79B3C003C002C00190042FE0FBA3E09A
:1044F400FAA3E0F990001F1205657BFF7A9C79E12D
:10450400C003C002C00190042FE0FBA3E0FAA3E0C3
:10451400F99000221205657BFF7A8F7983C003C06E
:1045240002C00190042FE0FBA3E0FAA3E0F990009D
:054534002512056522BF
:08755100900A2BEEF0A3EFF00D
:10755900129F6F900AC7120459129F6F900ACB129B
:107569000459900AC7E0FCA3E0FDA3E0FEA3E0FFF5
:10757900A3E0F8A3E0F9A3E0FAA3E0FBC31203C474
:10758900900AC7E04021F8A3E0F9A3E0FAA3E0FBE1
:10759900A3E0FCA3E0FDA3E0FEA3E09BFFEE9AFEBF
:1075A900ED99FDEC98802FFCA3E0FDA3E0FEA3E09C
:1075B900FF1203B7A3E0F8A3E0F9A3E0FAA3E02FD1
:1075C900FFEA3EFEE93DFDE83CFCEF2401FFE43E15
:1075D900FEE43DFDE43CAB07AA06A905F8900A2B99
:1075E900E0FEA3E0FFE4FCFDD31203C450030275DF
:0175F900622F
:0175FA00226E
:10799800C003C002C001900AD6E0FBA3E0FAA3E04E
:1079A800F9900014120565900AD6E0FBA3E0FAA34B
:1079B800E0F9900017ED120194E4900A2BF0900A78
:1079C800D6E0FBA3E0FAA3E0F9900017120155FFF7
:1079D800900A2BE0FEC39F5045900014120535EE27
:1079E80075F00FA4FFAEF029F9EA3EFA900009E419
:1079F800F5F01202BC900AD6E0FBA3E0FAA3E0F986
:107A0800900014120535E92FF9EA3EFA90000B129E
:0E7A1800049600000000900A2BE004F080A00D
:017A2600223D
:102C6D00E4900ACFF0900AD6E0FBA3E0FAA3E0F9D6
:102C7D00900017120155FF900ACFE0FEC39F40034D
:102C8D00022F2F900014120535EE75F00FA429F9BF
:102C9D00EA35F0FA900009120237FFAEF0900AD62D
:102CAD00E0FBA3E0FAA3E0F9900012120237C39FF4
:102CBD00E5F09E4037900014120535900ACFE0756F
:102CCD00F00FA429F9EA35F0FA900009120237FF46
:102CDD00AEF0900AD6E0FBA3E0FAA3E0F990001263
:102CED00120237C39FFFE5F09EFE8048900AD6E0A2
:102CFD00FBA3E0FAA3E0F9900014120535900ACF7A
:102D0D00E075F00FA429F9EA35F0FA9000091202E6
:102D1D0037F4FFE5F0F4FE900AD6E0FBA3E0FAA34A
:102D2D00E0F99000121202372FFFEE35F0CF24019B
:102D3D00CF3400FE900AD0EEF0A3EFF0900AD6E06B
:102D4D00FBA3E0FAA3E0F990000C1205351205E49F
:102D5D00C006C007900AD6E0FBA3E0FAA3E0F99005
:102D6D000014120535900ACFE075F00FA429F9EA89
:102D7D0035F0FA90000B120429D007D006D31203B8
:102D8D00C4900AD6E0FBA3E0FAA3E0F990000C5042
:102D9D00421205351205E4C006C007900AD6E0FBC5
:102DAD00A3E0FAA3E0F9900014120535900ACFE0E4
:102DBD0075F00FA429F9EA35F0FA90000B120429E9
:102DCD00D007D006C3EF9BFFEE9AFEED99FDEC9870
:102DDD00FC80571205351205E4C004C005C006C0BD
:102DED0007900AD6E0FBA3E0FAA3E0F990001412D5
:102DFD000535900ACFE075F00FA429F9EA35F0FA00
:102E0D0090000B1203D51203B7D003D002D001D01E
:102E1D0000EB2FFFEA3EFEE93DFDE83CFCEF24010F
:102E2D00FFE43EFEE43DFDE43CFC900AD212045961
:102E3D00900AD6E0FBA3E0FAA3E0F9900014120586
:102E4D0035900ACFE075F00FA429F9EA35F0FA9024
:102E5D000003120237FFC3900AD1E09F900AD0E021
:102E6D0095F0501D9000051203D5900AD2E0F8A3FD
:102E7D00E0F9A3E0FAA3E0FBC31203C45003022F51
:102E8D0026900AD6E0FBA3E0FAA3E0F99000141215
:102E9D000535900ACFE075F00FA4F58285F0831209
:102EAD0005351205E45072900AD6E0FBA3E0FAA3B3
:102EBD00E0F9900012120237FDACF09000141205EB
:102ECD0035900ACFE075F00FA429F9EA35F0FA90A4
:102EDD000009EC8DF01202BC900AD6E0FBA3E0FADB
:102EED00A3E0F990000C1205351205E4C006C007E9
:102EFD00900AD6E0FBA3E0FAA3E0F99000141205C6
:102F0D0035900ACFE075F00FA429F9EA35F0FA9063
:102F1D00000BD007D006120405900ACFE004F00292
:022F2D002C7204
:012F2F00227F
:109EEB00900AD6E0FBA3E0FAA3E0F9900012E47528
:059EFB00F00102026FFE
:106C8A00900AD6EBF0A3EAF0A3E9F07BFF7A6C79DD
:106C9A008AC003C002C001900AD6E0FBA3E0FAA3AF
:106CAA00E0F91204E67BFF7A2C796DC003C002C0BA
:106CBA0001900AD6E0FBA3E0FAA3E0F990000312E0
:106CCA0005657BFF7A797998C003C002C001900AF2
:106CDA00D6E0FBA3E0FAA3E0F99000061205657B73
:106CEA00FF7A757951C003C002C001900AD6E0FB51
:106CFA00A3E0FAA3E0F99000091205657BFF7A9FE9
:106D0A00796FC003C002C001900AD6E0FBA3E0FA83
:106D1A00A3E0F990000C1205657BFF7A9E79EBC01F
:106D2A0003C002C001900AD6E0FBA3E0FAA3E0F98F
:106D3A0090000F120565900AD6E0FBA3E0FAA3E0E3
:106D4A00F9900012E4F5F01202BC900017E4020177
:016D5A0094A4
:100F2C00490861FF7DED00000000000060240819F5
:100F3C00FF7F7700000000000000000000000000B0
:100F4C000000000000000000000000000000000095
:100F5C00000000004C080DFF7FF4000000000000B2
:100F6C000000006027087AFF510F0000000000000D
:100F7C000000000000000000000000000000000065
:100F8C0000000000000000000000000000004C0801
:100F9C0055FF807100000000000000000050086A3E
:100FAC00FF667C0000000000000000000000000054
:100FBC00602807CAFF43D4000000000000000000B6
:100FCC000000000000000000000000000000000015
:100FDC0000000000000000000000000058083DFF69
:100FEC006C8A0000000000000000000000000000FF
:100FFC00000000000000005B07F2FF57520108617F
:10100C0001081901080D01087A01085501086A0147
:05101C0007CA01083DB8
:105752009007F5E0FBA3E0FAA3E0F9C003C002C0A2
:10576200019007F5A3A3E01204C689828A83D001BF
:10577200D002D0031205E89007F8E0FBA3E0FAA3F9
:10578200E0F9C003C002C0019007F8A3A3E012042D
:10579200C689828A83D001D002D0031205E890071D
:1057A200FBE0FBA3E0FAA3E0F9C003C002C0019052
:1057B20007FBA3A3E01204C689828A83D001D00228
:1057C200D0031205E89007FEE0FBA3E0FAA3E0F99C
:1057D200C003C002C0019007FEA3A3E01204C68961
:1057E200828A83D001D002D0031205E8900801E03A
:1057F200FBA3E0FAA3E0F9C003C002C001900801D4
:10580200A3A3E01204C689828A83D001D002D00306
:105812001205E8900804E0FBA3E0FAA3E0F9C00354
:10582200C002C001900804A3A3E01204C689828AC0
:1058320083D001D002D0031205E8900807E0FBA351
:10584200E0FAA3E0F9C003C002C001900807A3A3D5
:10585200E01204C689828A83D001D002D0031205E5
:10586200E890080AE0FBA3E0FAA3E0F9C003C00253
:10587200C00190080AA3A3E01204C689828A83D0D9
:0858820001D002D0030205E889
:0B825E00900A2BEBF0A3EAF0A3E9F07C
:10826900E4A3F0A3F0FF900A2BE0FBA3E0FAA3E05C
:10827900F98F82758300120155FD900A2FE02DF0C8
:10828900900A2EE03400F00FEFB41EDA900A2BE0CA
:10829900FBA3E0FAA3E0F990001F120155FD900A33
:1082A9002EE06D7001E4702190001E120155FF90BF
:1082B9000A2FE0B5071390000212015520E00A9039
:0A82C90000041201557002D322C315
:0182D3002288
:0B75FB00900A2BEBF0A3EAF0A3E9F0EC
:10760600E4A3F0A3F0900A2BE0FBA3E0FAA3E0F9D1
:107616009000021201552405900A30F06D7001ECBD
:107626006002C322E4FF900A30E0FE24FEFDEFC3B1
:107636009D5024900A2BE0FBA3E0FAA3E0F98F8289
:10764600758300120155FD900A2FE02DF0900A2E49
:10765600E03400F00F80CFEE24FEFFE434FFFE900E
:107666000A2BE0FBA3E0FAA3E0F98F828E831201D6
:1076760055FF900A2FE0B5071BA3E07E0024FFF517
:1076860082EE34FFF583120155FD900A2EE06D70EF
:0776960001EE6002C322D3E4
:01769D0022CA
:1033E600900A3BEBF0A3EAF0A3E9F0900A39EFF07C
:1033F600E4900A3FF0A3F0FC0C24D0F582E43400FC
:10340600F5837402F06F600D900A39E0FF64036083
:1034160004EFB41010AF040C74D02FF582E434001E
:10342600F5837410F0900A39E0FFAE040C74D02EC8
:10343600F582E43400F583EFF0ED64026009ED6493
:10344600036004EDB41010AE040C74D02EF582E4C3
:103456003400F5837410F0AE040C74D02EF582E4BB
:103466003400F583EDF0900A3EE0FE64026009EE5A
:1034760064036004EEB41010AE040C74D02EF58212
:10348600E43400F5837410F0900A3EE0FEAB040CC1
:1034960074D02BF582E43400F583EEF0EFFB900A4E
:1034A60040E02BF0900A3FE03400F0EDFBA3E02B68
:1034B600F0900A3FE03400F0EEFFA3E02FF0900A10
:1034C6003FE03400F0E4FF900A3EE0FEEFC39E507A
:1034D6006D900A3BE0FBA3E0FAA3E0F98F827583C7
:1034E60000120155FE64026009EE64036004EEB446
:1034F6001010AE040C74D02EF582E43400F58374FB
:1035060010F0900A3BE0FBA3E0FAA3E0F98F827586
:103516008300120155FEAD040C74D02DF582E434FF
:1035260000F583EEF08F82758300120155FB900A39
:1035360040E02BF0900A3FE03400F00F8089900ABB
:103546003FE0FEA3E0FD64026009ED64036004ED64
:10355600B41010AB040C74D02BF582E43400F58360
:103566007410F0AB040C74D02BF582E43400F583B0
:10357600EDF0EEFF64026009EF64036004EFB4103F
:1035860010AE040C74D02EF582E43400F58374106A
:10359600F0AE040C74D02EF582E43400F583EFF01F
:1035A600AF040C74D02FF582E43400F5837403F075
:1035B6007B017A0079D0C003C002C001AF04EFFDE1
:1035C6007C00900807E0FBA3E0FAA3E0F99000195D
:1035D60012053589828A83D001D002D0030205E81C
:1035E600900A34EBF0A3EAF0A3E9F0900A32EFF088
:1035F600E4900A38F0A3F0FC0C24D0F582E4340001
:10360600F5837402F06F600D900A32E0FF64036088
:1036160004EFB41010AF040C74D02FF582E434001C
:10362600F5837410F0900A32E0FFAE040C74D02ECD
:10363600F582E43400F583EFF0ED64026009ED6491
:10364600036004EDB41010AE040C74D02EF582E4C1
:103656003400F5837410F0AE040C74D02EF582E4B9
:103666003400F583EDF0900A37E0FE64026009EE5F
:1036760064036004EEB41010AE040C74D02EF58210
:10368600E43400F5837410F0900A37E0FEAB040CC6
:1036960074D02BF582E43400F583EEF0EFFB900A4C
:1036A60039E02BF0900A38E03400F0EDFBA3E02B74
:1036B600F0900A38E03400F0EEFFA3E02FF0900A15
:1036C60038E03400F0E4FF900A37E0FEEFC39E5086
:1036D6006D900A34E0FBA3E0FAA3E0F98F827583CC
:1036E60000120155FE64026009EE64036004EEB444
:1036F6001010AE040C74D02EF582E43400F58374F9
:1037060010F0900A34E0FBA3E0FAA3E0F98F82758B
:103716008300120155FEAD040C74D02DF582E434FD
:1037260000F583EEF08F82758300120155FB900A37
:1037360039E02BF0900A38E03400F00F8089900AC7
:1037460038E0FEA3E0FD64026009ED64036004ED69
:10375600B41010AB040C74D02BF582E43400F5835E
:103766007410F0AB040C74D02BF582E43400F583AE
:10377600EDF0EEFF64026009EF64036004EFB4103D
:1037860010AE040C74D02EF582E43400F583741068
:10379600F0AE040C74D02EF582E43400F583EFF01D
:1037A600AF040C74D02FF582E43400F5837403F073
:1037B6007B017A0079D0C003C002C001AF04EFFDDF
:1037C6007C00900807E0FBA3E0FAA3E0F990002252
:1037D60012053589828A83D001D002D0030205E81A
:10102100410B4702410B4900410B4600410B48006F
:0B940F00900A38EBF0A3EAF0A3E9F0AC
:10941A00E4A3F0A3F0FFEFC39D5024900A38E0FBC9
:10942A00A3E0FAA3E0F98F82758300120155FB903D
:10943A000A3CE02BF0900A3BE03400F00F80D79012
:07944A000A3BE0FEA3E0FF76
:0194510022F8
:109D0200C2DE900B477401F0EF4E600280027F01C9
:109D1200900B49EFF0900B46F0900B48EDF0D2DE3D
:019D2200221E
:0590B800900A38EDF004
:1090BD00900002120155B401047C1E80027C329096
:1090CD0000051201556023900006120155601290A3
:1090DD0000071201556005EC243C8008EC24288023
:1090ED0003EC2414FFE433FE8004AF047E00900AE9
:0690FD0038E0FD129D02A7
:019103002249
:0E9FB700C2DEE4900B48F0900B477402F022DB
:03003B0002961911
:10961900C0E0C083C082C0D075D000C006C2D89057
:109629000BA5E0FEA3E0F5EAEEF5FAE02433F090AD
:109639000BA5E03407F0900B46E014F07007C2DE8A
:10964900129FB780F1D006D0D0D082D083D0E0323B
:0BA06100B3F5CABCBBAFD7B4CCAC0059
:10111600900801E0FBA3E0FAA3E0F99000061205AF
:101126003589828A837F007EC81205E8900A2BEFF4
:10113600F0900801E0FBA3E0FAA3E0F990000612A4
:10114600053589828A837F017EC81205E8900A2CBC
:10115600EFF0900801E0FBA3E0FAA3E0F9900006A7
:1011660012053589828A837F027EC81205E8900AB5
:101176002DEFF0900A2BE0B4460BA3E0B45106A382
:10118600E064596035785A7C0A7D017BFF7AA07944
:10119600617E007F0A12011678647C0A7D017BFF5E
:1011A6007AA079617E007F0A1201167E007F067D95
:1011B600087B017A0A796E02092F900801E0FBA3E9
:1011C600E0FAA3E0F990000612053589828A837F4A
:1011D600037EC81205E8900A5AEFF0900801E0FB7A
:1011E600A3E0FAA3E0F990000612053589828A8306
:1011F6007F047EC81205E8900A5BEFF0900801E0D4
:10120600FBA3E0FAA3E0F990000612053589828A6D
:10121600837F057EC81205E8900A5CEFF09008010E
:10122600E0FBA3E0FAA3E0F99000061205358982F7
:101236008A837F067EC81205E8900A5DEFF0900863
:1012460001E0FBA3E0FAA3E0F99000061205358958
:10125600828A837F077EC81205E8900A5EEFF090C7
:101266000801E0FBA3E0FAA3E0F9900006120535B9
:1012760089828A837F087EC81205E8900A5FEFF0AC
:10128600900801E0FBA3E0FAA3E0F990000612053E
:101296003589828A837F097EC81205E8900A60EF45
:1012A600F0900801E0FBA3E0FAA3E0F99000061233
:1012B600053589828A837F0A7EC81205E8900A610D
:1012C600EFF0900801E0FBA3E0FAA3E0F990000636
:1012D60012053589828A837F0B7EC81205E8900A3B
:1012E60062EFF0900801E0FBA3E0FAA3E0F99000BA
:1012F6000612053589828A837F0C7EC81205E8901E
:101306000A63EFF0900801E0FBA3E0FAA3E0F9908E
:10131600000612053589828A837F0D7EC81205E88C
:10132600900A64EFF0900801E0FBA3E0FAA3E0F96D
:1013360090000612053589828A837F0E7EC81205C3
:10134600E8900A65EFF0900801E0FBA3E0FAA3E05D
:10135600F990000612053589828A837F0F7EC812AE
:1013660005E8900A66EFF0900801E0FBA3E0FAA317
:10137600E0F990000612053589828A837F107EC8BF
:101386001205E8900A67EFF0900801E0FBA3E0FA87
:10139600A3E0F990000612053589828A837F117EC3
:1013A600C81205E8900A68EFF0900801E0FBA3E098
:1013B600FAA3E0F990000612053589828A837F1226
:1013C6007EC81205E8900A69EFF0900801E0FBA3D9
:1013D600E0FAA3E0F990000612053589828A837F38
:1013E600137EC81205E8900A6AEFF0900801E0FB48
:1013F600A3E0FAA3E0F990000612053589828A83F4
:101406007F147EC81205E8900A6BEFF0900801E0A1
:10141600FBA3E0FAA3E0F990000612053589828A5B
:10142600837F157EC81205E8900A6CEFF0900801DC
:10143600E0FBA3E0FAA3E0F99000061205358982E5
:101446008A837F167EC81205E8900A6DEFF0900831
:1014560001E0FBA3E0FAA3E0F99000061205358946
:10146600828A837F177EC81205E8900A6EEFF09095
:101476000801E0FBA3E0FAA3E0F9900006120535A7
:1014860089828A837F187EC81205E8900A6FEFF07A
:10149600900801E0FBA3E0FAA3E0F990000612052C
:1014A6003589828A837F197EC81205E8900A70EF13
:1014B600F0900801E0FBA3E0FAA3E0F99000061221
:1014C600053589828A837F1A7EC81205E8900A71DB
:1014D600EFF0900801E0FBA3E0FAA3E0F990000624
:1014E60012053589828A837F1B7EC81205E8900A19
:1014F60072EFF0900801E0FBA3E0FAA3E0F9900098
:101506000612053589828A837F1C7EC81205E890FB
:041516000A73EFF075
:01151A0022AE
:1018DC007F007EC8129C9E900801E0FBA3E0FAA357
:1018EC00E0F990000912053589828A837D467F00D4
:1018FC007EC81205E8900801E0FBA3E0FAA3E0F92A
:10190C0090000912053589828A837D517F017EC83A
:10191C001205E8900801E0FBA3E0FAA3E0F99000BF
:10192C000912053589828A837D597F027EC812058A
:10193C00E8900A5AE0FD900801E0FBA3E0FAA3E06E
:10194C00F990000912053589828A837F037EC812BB
:10195C0005E8900A5BE0FD900801E0FBA3E0FAA328
:10196C00E0F990000912053589828A837F047EC8CC
:10197C001205E8900A5CE0FD900801E0FBA3E0FA98
:10198C00A3E0F990000912053589828A837F057ED0
:10199C00C81205E8900A5DE0FD900801E0FBA3E0A9
:1019AC00FAA3E0F990000912053589828A837F0633
:1019BC007EC81205E8900A5EE0FD900801E0FBA3EA
:1019CC00E0FAA3E0F990000912053589828A837F39
:1019DC00077EC81205E8900A5FE0FD900801E0FB65
:1019EC00A3E0FAA3E0F990000912053589828A83F5
:1019FC007F087EC81205E8900A60E0FD900801E0BF
:101A0C00FBA3E0FAA3E0F990000912053589828A5C
:101A1C00837F097EC81205E8900A61E0FD900801F9
:101A2C00E0FBA3E0FAA3E0F99000091205358982E6
:101A3C008A837F0A7EC81205E8900A62E0FD90084E
:101A4C0001E0FBA3E0FAA3E0F99000091205358947
:101A5C00828A837F0B7EC81205E8900A63E0FD90B2
:101A6C000801E0FBA3E0FAA3E0F9900009120535A8
:101A7C0089828A837F0C7EC81205E8900A64E0FD97
:101A8C00900801E0FBA3E0FAA3E0F990000912052D
:101A9C003589828A837F0D7EC81205E8900A65E03D
:101AAC00FD900801E0FBA3E0FAA3E0F99000091215
:101ABC00053589828A837F0E7EC81205E8900A66F6
:101ACC00E0FD900801E0FBA3E0FAA3E0F990000927
:101ADC0012053589828A837F0F7EC81205E8900A29
:101AEC0067E0FD900801E0FBA3E0FAA3E0F99000A9
:101AFC000912053589828A837F107EC81205E89009
:101B0C000A68E0FD900801E0FBA3E0FAA3E0F9907D
:101B1C00000912053589828A837F117EC81205E877
:101B2C00900A69E0FD900801E0FBA3E0FAA3E0F95C
:101B3C0090000912053589828A837F127EC81205AE
:101B4C00E8900A6AE0FD900801E0FBA3E0FAA3E04C
:101B5C00F990000912053589828A837F137EC81299
:101B6C0005E8900A6BE0FD900801E0FBA3E0FAA306
:101B7C00E0F990000912053589828A837F147EC8AA
:101B8C001205E8900A6CE0FD900801E0FBA3E0FA76
:101B9C00A3E0F990000912053589828A837F157EAE
:101BAC00C81205E8900A6DE0FD900801E0FBA3E087
:101BBC00FAA3E0F990000912053589828A837F1611
:101BCC007EC81205E8900A6EE0FD900801E0FBA3C8
:101BDC00E0FAA3E0F990000912053589828A837F27
:101BEC00177EC81205E8900A6FE0FD900801E0FB33
:101BFC00A3E0FAA3E0F990000912053589828A83E3
:101C0C007F187EC81205E8900A70E0FD900801E08C
:101C1C00FBA3E0FAA3E0F990000912053589828A4A
:101C2C00837F197EC81205E8900A71E0FD900801C7
:101C3C00E0FBA3E0FAA3E0F99000091205358982D4
:101C4C008A837F1A7EC81205E8900A72E0FD90081C
:101C5C0001E0FBA3E0FAA3E0F99000091205358935
:101C6C00828A837F1B7EC81205E8900A73E0FD9080
:101C7C000801E0FBA3E0FAA3E0F990000912053596
:0B1C8C0089828A837F1C7EC80205E865
:10232400900801E0FBA3E0FAA3E0F990000612058F
:102334003589828A837F007ECA1205E8900A2BEFD2
:10234400F0900801E0FBA3E0FAA3E0F99000061284
:10235400053589828A837F017ECA1205E8900A2C9A
:10236400EFF0900801E0FBA3E0FAA3E0F990000687
:1023740012053589828A837F027ECA1205E8900A93
:102384002DEFF0900A2BE0645A6003022646A3E086
:1023940064536003022646A3E064536003022646A6
:1023A400900801E0FBA3E0FAA3E0F990000612050F
:1023B4003589828A837F037ECA1205E890041DEF63
:1023C400F0900801E0FBA3E0FAA3E0F99000061204
:1023D400053589828A837F047ECA1205E890041E2B
:1023E400EFF0900801E0FBA3E0FAA3E0F990000607
:1023F40012053589828A837F057ECA1205E8900416
:102404001FEFF0900801E0FBA3E0FAA3E0F99000CD
:102414000612053589828A837F067ECA1205E890F2
:102424000420EFF0900801E0FBA3E0FAA3E0F990A8
:10243400000612053589828A837F077ECA1205E861
:10244400EF900415F0A3E4F0900801E0FBA3E0FA98
:10245400A3E0F990000612053589828A837F087EFD
:10246400CA1205E8900415E0F0A3E04FF0900801CB
:10247400E0FBA3E0FAA3E0F9900006120535898297
:102484008A837F097ECA1205E8900421EFF0900840
:1024940001E0FBA3E0FAA3E0F990000612053589F8
:1024A400828A837F0A7ECA1205E8900422EFF090A4
:1024B4000801E0FBA3E0FAA3E0F990000612053559
:1024C40089828A837F0B7ECA1205E8900423EFF089
:1024D400900801E0FBA3E0FAA3E0F99000061205DE
:1024E4003589828A837F0C7ECA1205E8900424EF22
:1024F400F0900801E0FBA3E0FAA3E0F990000612D3
:10250400053589828A837F0D7ECA1205E8900425E9
:10251400EFF0900801E0FBA3E0FAA3E0F9900006D5
:1025240012053589828A837F0E7ECA1205E89004DB
:1025340026EFF0900801E0FBA3E0FAA3E0F9900095
:102544000612053589828A837F0F7ECA1205E890B8
:102554000427EFF0900801E0FBA3E0FAA3E0F99070
:10256400000612053589828A837F107ECA1205E827
:10257400900428EFF0900801E0FBA3E0FAA3E0F94F
:1025840090000612053589828A837F117ECA12055E
:10259400E8900419EFF0900801E0FBA3E0FAA3E04F
:1025A400F990000612053589828A837F127ECA1249
:1025B40005E890041AEFF0900801E0FBA3E0FAA309
:1025C400E0F990000612053589828A837F137ECA5A
:1025D4001205E890041BEFF0900801E0FBA3E0FA79
:1025E400A3E0F990000612053589828A837F147E60
:1025F400CA1205E890041CEFF0900801E0FBA3E088
:10260400FAA3E0F990000612053589828A837F15C2
:102614007ECA1205E8EF900417F0A3E4F0900801D5
:10262400E0FBA3E0FAA3E0F99000061205358982E5
:102634008A837F167ECA1205E8900417E0F0A3E0AF
:022644004FF055
:012646002271
:10296100900801E0FBA3E0FAA3E0F990000312054F
:102971003589828A837F037ECA1205E8900801E0C7
:10298100FBA3E0FAA3E0F990000912053589828AD8
:10299100837D5A7F007ECA1205E8900801E0FBA3FF
:1029A100E0FAA3E0F990000912053589828A837D56
:1029B100537F017ECA1205E8900801E0FBA3E0FA0B
:1029C100A3E0F990000912053589828A837D537F3E
:1029D100027ECA1205E890041DE0FD900801E0FBAB
:1029E100A3E0FAA3E0F990000912053589828A83F0
:1029F1007F037ECA1205E890041EE0FD900801E005
:102A0100FBA3E0FAA3E0F990000912053589828A57
:102A1100837F047ECA1205E890041FE0FD9008013F
:102A2100E0FBA3E0FAA3E0F99000091205358982E1
:102A31008A837F057ECA1205E8900420E0FD900894
:102A410001E0FBA3E0FAA3E0F99000091205358942
:102A5100828A837F067ECA1205E8900415E0FD9004
:102A61000801E0FBA3E0FAA3E0F9900009120535A3
:102A710089828A837F077ECA1205E8900415A3E044
:102A8100FD900801E0FBA3E0FAA3E0F99000091230
:102A9100053589828A837F087ECA1205E890042160
:102AA100E0FD900801E0FBA3E0FAA3E0F990000942
:102AB10012053589828A837F097ECA1205E890044E
:102AC10022E0FD900801E0FBA3E0FAA3E0F9900009
:102AD1000912053589828A837F0A7ECA1205E89028
:102AE1000423E0FD900801E0FBA3E0FAA3E0F990E4
:102AF100000912053589828A837F0B7ECA1205E897
:102B0100900424E0FD900801E0FBA3E0FAA3E0F9C2
:102B110090000912053589828A837F0C7ECA1205CD
:102B2100E8900425E0FD900801E0FBA3E0FAA3E0B2
:102B3100F990000912053589828A837F0D7ECA12B8
:102B410005E8900426E0FD900801E0FBA3E0FAA36C
:102B5100E0F990000912053589828A837F0E7ECAC9
:102B61001205E8900427E0FD900801E0FBA3E0FADC
:102B7100A3E0F990000912053589828A837F0F7ECF
:102B8100CA1205E8900428E0FD900801E0FBA3E0EB
:102B9100FAA3E0F990000912053589828A837F1032
:102BA1007ECA1205E8900419E0FD900801E0FBA33C
:102BB100E0FAA3E0F990000912053589828A837F42
:102BC100117ECA1205E890041AE0FD900801E0FBAD
:102BD100A3E0FAA3E0F990000912053589828A83FE
:102BE1007F127ECA1205E890041BE0FD900801E007
:102BF100FBA3E0FAA3E0F990000912053589828A66
:102C0100837F137ECA1205E890041CE0FD90080141
:102C1100E0FBA3E0FAA3E0F99000091205358982EF
:102C21008A837F147ECA1205E8900417E0FD90089C
:102C310001E0FBA3E0FAA3E0F99000091205358950
:102C4100828A837F157ECA1205E8900417A3E0FDEE
:102C5100900801E0FBA3E0FAA3E0F9900009120556
:0C2C61003589828A837F167ECA0205E84E
:10974500900A53E054FEF054F1F0A37431F0A37481
:1097550005F0A3F0A37417F0A37401F0A37418F037
:10976500121116122324900807E0FBA3E0FAA3E0E8
:0A977500F990000D1205350205E41D
:1095D800696E6465783A0900096465766E6F3A09C0
:1095E8000009747970653A09006D72303A0900090A
:1095F8006D72313A0900096D72323A0900627230AF
:109608003A0900096272313A0900096272323A096C
:019618000051
:08103100410638004107C90027
:108C5100E4FF75F00AEFA42442F582E5F03406F54D
:108C610083E054FBF075F00AEFA42441F582E5F0AE
:108C71003406F583E4F075F00AEFA42442F582E5A9
:108C8100F03406F583E054FDF075F00AEFA42442B8
:108C9100F582E5F03406F583E054FEF00FEFB428D9
:068CA100B1E4900638F07A
:018CA70022AA
:1084350012013CFF900001120155FD90000212014E
:0284450055FBE5
:10844700E4FE75F00AEEA42442F582E5F03406F561
:1084570083E01313543F30E04175F00AEEA424394A
:10846700F582E5F03406F583E06F702E75F00AEEBD
:10847700A4243AF582E5F03406F583E0B5051B75CB
:10848700F00AEEA42442F582E5F03406F583E01302
:108497001313541FB50303AF06220EEEB428A37FB0
:0184A700FFD5
:0184A80022B1
:0B59BC00900A35EBF0A3EAF0A3E9F03D
:1059C700128435EFF46002D322E4900A38F0900A8B
:1059D70038E0FFC394284003025AE875F00AEFA4A1
:1059E7002442F582E5F03406F583E01313543F3083
:1059F700E003025ADF900A35E0FBA3E0FAA3E0F9DF
:105A070012013CFF900A38E0FE75F00AA42439F52C
:105A170082E5F03406F583EFF0900001120155FF9F
:105A270075F00AEEA4243AF582E5F03406F583EF23
:105A3700F0900002120155541F33333354F8FF75A9
:105A4700F00AEEA42442F582E5F03406F583E0542B
:105A5700074FF0E92403F9E43AFAC001900A38E065
:105A670075F00AA4243BF9740635F0A801FC7D0102
:105A7700D0017E007F03120116900A35E0FBA3E0F8
:105A8700FAA3E02406F9E43AFAC001A3E075F00AA4
:105A9700A4243EF9740635F0A801FC7D01D0017EEF
:105AA700007F03120116900A38E0FF75F00AA4245C
:105AB70042F582E5F03406F583E04404F075F00A18
:105AC700EFA42442F582E5F03406F583E054FDF0B7
:105AD700900638E004F0D322900A38E004F0025927
:025AE700D5C325
:015AE900229A
:109AE300128435EFF46022EF3395E0FE9006427561
:109AF300F00AEF1204BAEE75F00AA42583F583E0A9
:0A9B030054FBF0900638E014F0D394
:019B0D002235
:109D2300E4FF75F00AEFA42442F582E5F03406F56A
:109D330083E054FBF00FEFB428E8E4900638F0D347
:019D430022FD
:102F3000E4900637F0900637E0FFC3942840030280
:102F400031AF75F00AEFA42442F582E5F03406F5BE
:102F500083E0FF1313543F20E0030231A67BFF7A86
:102F60009579D8C003C002C001900637E0FD7C000F
:102F70009007FEE0FBA3E0FAA3E0F990000C120535
:102F80003589828A83D001D002D0031205E89006E9
:102F900037E0FD75F00AA4243AF582E5F03406F531
:102FA00083E0FE75F00AEDA42439F582E5F03406DD
:102FB000F583E0FDEEFC7BFF7A9579E0C003C0026B
:102FC000C0019007FEE0FBA3E0FAA3E0F990000C3B
:102FD00012053589828A83D001D002D0031205E818
:102FE000900637E075F00AA42442F582E5F0340635
:102FF000F583E0FF131313541FFD7C007BFF7A95CC
:1030000079E9C003C002C0019007FEE0FBA3E0FA2B
:10301000A3E0F990000F12053589828A83D001D090
:1030200002D0031205E8900637E075F00AA4243BAD
:10303000F582E5F03406F583E0FD7C007BFF7A95B0
:1030400079F1C003C002C0019007FEE0FBA3E0FAE3
:10305000A3E0F990000C12053589828A83D001D053
:1030600002D0031205E8900637E075F00AA4243B6D
:10307000F582E5F03406F583E0FD7C007BFF7A9570
:1030800079F7C003C002C0019007FEE0FBA3E0FA9D
:10309000A3E0F990000C12053589828A83D001D013
:1030A00002D0031205E8900637E075F00AA4243B2D
:1030B000F582E5F03406F583E0FD7C007BFF7A9530
:1030C00079FEC003C002C0019007FEE0FBA3E0FA56
:1030D000A3E0F990000F12053589828A83D001D0D0
:1030E00002D0031205E8900637E075F00AA4243EEA
:1030F000F582E5F03406F583E0FD7C007BFF7A96EF
:103100007905C003C002C0019007FEE0FBA3E0FA0E
:10311000A3E0F990000C12053589828A83D001D092
:1031200002D0031205E8900637E075F00AA4243EA9
:10313000F582E5F03406F583E0FD7C007BFF7A96AE
:10314000790BC003C002C0019007FEE0FBA3E0FAC8
:10315000A3E0F990000C12053589828A83D001D052
:1031600002D0031205E8900637E075F00AA4243E69
:10317000F582E5F03406F583E0FD7C007BFF7A966E
:103180007912C003C002C0019007FEE0FBA3E0FA81
:10319000A3E0F990000F12053589828A83D001D00F
:0F31A00002D0031205E8900637E004F0022F3545
:0131AF0022FD
:04103900410AB400B4
:109E7B00E4FFEF75F006A424BAF582E4340AF58307
:079E8B00E4F00FEFB403EB5C
:019E920022AD
:0B8FD30012013CFF900001120155FD4F
:108FDE00E4FEEE75F006A424BAF582E4340AF583B5
:108FEE00E06027EE75F006A424B5F582E4340AF5A8
:108FFE0083E0B50715EE75F006A424B6F582E434C9
:10900E000AF583E0B50503AF06220EEEB403C37F67
:01901E00FF52
:01901F00222E
:10728C00128FD3EFF46002C322E4FFEF75F006A473
:10729C0024BAF582E4340AF583E0600302733412F5
:1072AC00013CFEEF75F006A424B5F582E4340AF532
:1072BC0083EEF0900001120155FEEF75F006A42448
:1072CC00B6F582E4340AF583EEF090000312015512
:1072DC00FEEF75F006A424B7F582E4340AF583EECC
:1072EC00F0900004120155FEEF75F006A424B8F5D9
:1072FC0082E4340AF583EEF0900005120155FEEF9E
:10730C0075F006A424B9F582E4340AF583EEF0EFA7
:10731C0075F006A424BAF582E4340AF5837401F0FE
:10732C00900AB4E004F0D3220FEF640360030272FE
:02733C0097C3F5
:01733E00222C
:109BDC00128FD3EFF46020EF3395E0FE900ABA7544
:109BEC00F006EF1204BAEE75F006A42583F583E4B3
:089BFC00F0900AB4E014F0D36C
:019C0400223D
:109DA100E4FFEF75F006A424BAF582E4340AF583E2
:0D9DB100E4F00FEFB403EBE4900AB4F0D33C
:019DBE002282
:08A0D700900A53E054F1F0225D
:109C7A00900A53E0FFC313FE5407D394034005EF41
:109C8A0054FEF022900A53E054F1FFEE04540725E3
:049C9A00E04FF02285
:109EAA00900A53E054F1F0900A56E0900A55F09067
:069EBA000A547432F0228C
:08A0DF00900A53E054F1F02255
:10692900900001120155900A2EF078CF7C017D016B
:106939007B017A0A79577E007F0312011678D27C8F
:10694900017D017B017A0A795A7E007F0A120116BC
:1069590078DC7C017D017B017A0479297E007F0640
:1069690012011678E27C017D017B017A04791D7E92
:10697900007F0412011678E67C017D017B017A040F
:1069890079257E007F0412011678EA7C017D017B5E
:10699900017A0479217E007F0412011678EE7C01C8
:1069A9007D017B017A0479157E007F021201167838
:1069B900F07C017D017B017A0479197E007F041244
:1069C900011678F47C017D017B017A0479177E0038
:1069D9007F0212011678F67C017D017B017A0A7922
:1069E900647E007F0A120116900A2EE0FD7B017A6F
:0E69F9000179CF900A377431F07F620235E6E3
:0B40D200900A2EEBF0A3EAF0A3E9F047
:1040DD00900001120155900A31F0900A2EE0FBA3D9
:1040ED00E0FAA3E02427F9E43AA801FCAD037B0133
:1040FD007A0A796E7E007F0612090BEF601C900123
:10410D00CF7432F0900A31E0FD7B017A0179CF90C6
:10411D000A377401F07F640235E6900A547431F069
:10412D00900A2EE0FBA3E0FAA3E02409F9E43AFAA1
:10413D00785A7C0A7D017E007F0A120116900A2EA4
:10414D00E0FBA3E0FAA3E02413F9E43AFA781D7C2E
:10415D00047D017E007F04120116900A2EE0FBA360
:10416D00E0FAA3E02417F9E43AFA78257C047D01FE
:10417D007E007F04120116900A2EE0FBA3E0FAA345
:10418D00E0241BF9E43AFA78217C047D017E007F5E
:10419D0004120116900A2EE0FBA3E0FAA3E0241FFF
:1041AD00F9E43AFA78157C047D017E007F02120154
:1041BD0016900A2EE0FBA3E0FAA3E02421F9E43ADD
:1041CD00FA78197C047D017E007F04120116900A95
:1041DD002EE0FBA3E0FAA3E02425F9E43AFA7817E0
:1041ED007C047D017E007F02120116900A2EE0FBF9
:1041FD00A3E0FAA3E0242DF9E43AFA786E7C0A7D67
:10420D00017E007F06120116900A2EE0FBA3E0FA54
:10421D00A3E02433F9E43AFA78647C0A7D017E0048
:10422D007F0A1201169001CF7431F0900A31E0FD32
:10423D007B017A0179CF900A377401F07F641235D2
:10424D00E61218DC122961900807E0FBA3E0FAA33F
:0B425D00E0F990000D1205351205E499
:014268002233
:1099D700900001120155FF9000031201559001CF2D
:1099E700F09000041201559001D0F0AD077B017A89
:0E99F7000179CF900A3E7402F07F660233E6DB
:10638600C208900001120155FF900003120155FE4C
:10639600FDB43109900A53E04401F0800FEDB432A8
:1063A60009900A53E054FEF08002D20890000412CD
:1063B6000155FD54F0C4540F75F00AA4FCED540FBA
:1063C6002C900B0EF0900005120155FD54F0C454AC
:1063D6000F75F00AA4FCED540F2C900B0FF09000F3
:1063E60006120155FD54F0C4540F75F00AA4FCEDD5
:1063F600540F2C900B10F0900007120155FD54F02D
:10640600C4540F75F00AA4FCED540F2C900B11F038
:10641600900008120155FD54F0C4540F75F00AA4FB
:10642600FCED540F2C900B12F0900009120155FD53
:1064360054F0C4540F75F00AA4FCED540F2C900BC5
:1064460013F090000A120155FD54F0C4540F75F074
:106456000AA4FCED540F2C900B14F09001CFEEF033
:106466003008047E3280027E319001D0EEF0AD0716
:106476007B017A0179CF900A3E7402F07F74123361
:04648600E602A0DFAB
:10648A00900001120155900A2EF090000312015556
:10649A00FF900004120155900A2FF0900005120196
:1064AA0055900A30F0900006120155900A31F0908A
:1064BA000007120155900A32F09000081201559017
:1064CA000A33F09001CF7432F09001D1F09001D3E9
:1064DA00F0EFB43143900A2FE0FF900804E0FBA3E9
:1064EA00E0FAA3E0F990000412053589828A831242
:1064FA0005E89007FBE0FBA3E0FAA3E0F9900006A9
:10650A0012053589828A837F1E7E007D007C0012F7
:10651A0005E89001CF7431F0900A30E0B43106906A
:10652A0001D17431F0900A32E064317024A3E0FFA3
:10653A00600280027F05900A55EFF0900A33E0FF6F
:10654A00600280027F05900A56EFF09001D3743101
:10655A00F0900A2FE09001D0F0900A31E09001D239
:10656A00F0900A55E09001D4F0900A2EE0FD7B01EC
:0F657A007A0179CF900A3E7406F07F6A0233E609
:0B3D8500900A2EEBF0A3EAF0A3E9F097
:103D9000D208900001120155900A32F090000312EF
:103DA0000155FF900A33F0900004120155900A3437
:103DB000F0EF24CF602014607024FE7003023E6692
:103DC000147003023EB5147003023E6324036003C3
:103DD000023EEC129D23900638E0FFC374289FFF3B
:103DE000900A34E0FEEFC39E5005C208023EEE90FA
:103DF0000A317405F0900A34E0D394005003023E77
:103E0000EE900A2EE0FBA3E0FAA3E0F9A3E0FF7E28
:103E100000E92FF9EE3AFA1259BC900A34E014F096
:103E2000900A31E02409F080CC900A317405F090BA
:103E30000A34E0D394005003023EEE900A2EE0FBD9
:103E4000A3E0FAA3E0F9A3E0FF7E00E92FF9EE3A40
:103E5000FA129AE3900A34E014F0900A31E024094F
:103E6000F080CC129DA1900AB4E0FFC374039FFFC1
:103E7000900A34E0FEEFC39E5004C2088070900A9E
:103E8000317405F0900A34E0D394004061900A2E1A
:103E9000E0FBA3E0FAA3E0F9A3E0FF7E00E92FF93D
:103EA000EE3AFA12728C900A34E014F0900A31E083
:103EB0002409F080CF900A317405F0900A34E0D3E1
:103EC0009400402A900A2EE0FBA3E0FAA3E0F9A3B5
:103ED000E0FF7E00E92FF9EE3AFA129BDC900A34FB
:103EE000E014F0900A31E02409F080CFC208900A73
:103EF00033E0C394344009900AB4E0FF74038008AF
:103F0000900638E0FFC374289F9001CFF03008047A
:103F10007F3180027F329001D0EFF0900A32E0FDD5
:103F20007B017A0179CF900A3E7402F07F700233F0
:013F3000E6AA
:10617600E4FFFEFD75F00AEDA42442F582E5F03455
:1061860006F583E0FC1313543F20E00302621EEC85
:10619600C31330E0047E018002E4FE0F75F00AEDC1
:1061A600A42439F582E5F03406F583E0FC75F004A5
:1061B600EFA424CCF582E5F03401F583ECF075F01C
:1061C6000AEDA4243AF582E5F03406F583E0FC7581
:1061D600F004EFA424CDF582E5F03401F583ECF06C
:1061E60075F00AEDA42442F582E5F03406F583E065
:1061F600131313541FFC75F004EFA424CEF582E5A7
:10620600F03401F583ECF075F004EFA424CFF582A9
:10621600E5F03401F583EEF00DED642860030261CC
:106226007A9001CFEFF0900A53E030E0047E31809F
